{"abi":[{"type":"constructor","inputs":[],"stateMutability":"nonpayable"},{"type":"function","name":"BASE_INIT_BYTECODE_WRAPPED_TOKEN","inputs":[],"outputs":[{"name":"","type":"bytes","internalType":"bytes"}],"stateMutability":"view"},{"type":"function","name":"WETHToken","inputs":[],"outputs":[{"name":"","type":"address","internalType":"contract TokenWrapped"}],"stateMutability":"view"},{"type":"function","name":"activateEmergencyState","inputs":[],"outputs":[],"stateMutability":"nonpayable"},{"type":"function","name":"bridgeAsset","inputs":[{"name":"destinationNetwork","type":"uint32","internalType":"uint32"},{"name":"destinationAddress","type":"address","internalType":"address"},{"name":"amount","type":"uint256","internalType":"uint256"},{"name":"token","type":"address","internalType":"address"},{"name":"forceUpdateGlobalExitRoot","type":"bool","internalType":"bool"},{"name":"permitData","type":"bytes","internalType":"bytes"}],"outputs":[],"stateMutability":"payable"},{"type":"function","name":"bridgeMessage","inputs":[{"name":"destinationNetwork","type":"uint32","internalType":"uint32"},{"name":"destinationAddress","type":"address","internalType":"address"},{"name":"forceUpdateGlobalExitRoot","type":"bool","internalType":"bool"},{"name":"metadata","type":"bytes","internalType":"bytes"}],"outputs":[],"stateMutability":"payable"},{"type":"function","name":"bridgeMessageWETH","inputs":[{"name":"destinationNetwork","type":"uint32","internalType":"uint32"},{"name":"destinationAddress","type":"address","internalType":"address"},{"name":"amountWETH","type":"uint256","internalType":"uint256"},{"name":"forceUpdateGlobalExitRoot","type":"bool","internalType":"bool"},{"name":"metadata","type":"bytes","internalType":"bytes"}],"outputs":[],"stateMutability":"nonpayable"},{"type":"function","name":"calculateRoot","inputs":[{"name":"leafHash","type":"bytes32","internalType":"bytes32"},{"name":"smtProof","type":"bytes32[32]","internalType":"bytes32[32]"},{"name":"index","type":"uint32","internalType":"uint32"}],"outputs":[{"name":"","type":"bytes32","internalType":"bytes32"}],"stateMutability":"pure"},{"type":"function","name":"calculateTokenWrapperAddress","inputs":[{"name":"originNetwork","type":"uint32","internalType":"uint32"},{"name":"originTokenAddress","type":"address","internalType":"address"},{"name":"token","type":"address","internalType":"address"}],"outputs":[{"name":"","type":"address","internalType":"address"}],"stateMutability":"view"},{"type":"function","name":"claimAsset","inputs":[{"name":"smtProofLocalExitRoot","type":"bytes32[32]","internalType":"bytes32[32]"},{"name":"smtProofRollupExitRoot","type":"bytes32[32]","internalType":"bytes32[32]"},{"name":"globalIndex","type":"uint256","internalType":"uint256"},{"name":"mainnetExitRoot","type":"bytes32","internalType":"bytes32"},{"name":"rollupExitRoot","type":"bytes32","internalType":"bytes32"},{"name":"originNetwork","type":"uint32","internalType":"uint32"},{"name":"originTokenAddress","type":"address","internalType":"address"},{"name":"destinationNetwork","type":"uint32","internalType":"uint32"},{"name":"destinationAddress","type":"address","internalType":"address"},{"name":"amount","type":"uint256","internalType":"uint256"},{"name":"metadata","type":"bytes","internalType":"bytes"}],"outputs":[],"stateMutability":"nonpayable"},{"type":"function","name":"claimMessage","inputs":[{"name":"smtProofLocalExitRoot","type":"bytes32[32]","internalType":"bytes32[32]"},{"name":"smtProofRollupExitRoot","type":"bytes32[32]","internalType":"bytes32[32]"},{"name":"globalIndex","type":"uint256","internalType":"uint256"},{"name":"mainnetExitRoot","type":"bytes32","internalType":"bytes32"},{"name":"rollupExitRoot","type":"bytes32","internalType":"bytes32"},{"name":"originNetwork","type":"uint32","internalType":"uint32"},{"name":"originAddress","type":"address","internalType":"address"},{"name":"destinationNetwork","type":"uint32","internalType":"uint32"},{"name":"destinationAddress","type":"address","internalType":"address"},{"name":"amount","type":"uint256","internalType":"uint256"},{"name":"metadata","type":"bytes","internalType":"bytes"}],"outputs":[],"stateMutability":"nonpayable"},{"type":"function","name":"claimedBitMap","inputs":[{"name":"","type":"uint256","internalType":"uint256"}],"outputs":[{"name":"","type":"uint256","internalType":"uint256"}],"stateMutability":"view"},{"type":"function","name":"deactivateEmergencyState","inputs":[],"outputs":[],"stateMutability":"nonpayable"},{"type":"function","name":"depositCount","inputs":[],"outputs":[{"name":"","type":"uint256","internalType":"uint256"}],"stateMutability":"view"},{"type":"function","name":"gasTokenAddress","inputs":[],"outputs":[{"name":"","type":"address","internalType":"address"}],"stateMutability":"view"},{"type":"function","name":"gasTokenMetadata","inputs":[],"outputs":[{"name":"","type":"bytes","internalType":"bytes"}],"stateMutability":"view"},{"type":"function","name":"gasTokenNetwork","inputs":[],"outputs":[{"name":"","type":"uint32","internalType":"uint32"}],"stateMutability":"view"},{"type":"function","name":"getLeafValue","inputs":[{"name":"leafType","type":"uint8","internalType":"uint8"},{"name":"originNetwork","type":"uint32","internalType":"uint32"},{"name":"originAddress","type":"address","internalType":"address"},{"name":"destinationNetwork","type":"uint32","internalType":"uint32"},{"name":"destinationAddress","type":"address","internalType":"address"},{"name":"amount","type":"uint256","internalType":"uint256"},{"name":"metadataHash","type":"bytes32","internalType":"bytes32"}],"outputs":[{"name":"","type":"bytes32","internalType":"bytes32"}],"stateMutability":"pure"},{"type":"function","name":"getRoot","inputs":[],"outputs":[{"name":"","type":"bytes32","internalType":"bytes32"}],"stateMutability":"view"},{"type":"function","name":"getTokenMetadata","inputs":[{"name":"token","type":"address","internalType":"address"}],"outputs":[{"name":"","type":"bytes","internalType":"bytes"}],"stateMutability":"view"},{"type":"function","name":"getTokenWrappedAddress","inputs":[{"name":"originNetwork","type":"uint32","internalType":"uint32"},{"name":"originTokenAddress","type":"address","internalType":"address"}],"outputs":[{"name":"","type":"address","internalType":"address"}],"stateMutability":"view"},{"type":"function","name":"globalExitRootManager","inputs":[],"outputs":[{"name":"","type":"address","internalType":"contract IBasePolygonZkEVMGlobalExitRoot"}],"stateMutability":"view"},{"type":"function","name":"initialize","inputs":[{"name":"_networkID","type":"uint32","internalType":"uint32"},{"name":"_gasTokenAddress","type":"address","internalType":"address"},{"name":"_gasTokenNetwork","type":"uint32","internalType":"uint32"},{"name":"_globalExitRootManager","type":"address","internalType":"contract IBasePolygonZkEVMGlobalExitRoot"},{"name":"_polygonRollupManager","type":"address","internalType":"address"},{"name":"_gasTokenMetadata","type":"bytes","internalType":"bytes"}],"outputs":[],"stateMutability":"nonpayable"},{"type":"function","name":"isClaimed","inputs":[{"name":"leafIndex","type":"uint32","internalType":"uint32"},{"name":"sourceBridgeNetwork","type":"uint32","internalType":"uint32"}],"outputs":[{"name":"","type":"bool","internalType":"bool"}],"stateMutability":"view"},{"type":"function","name":"isEmergencyState","inputs":[],"outputs":[{"name":"","type":"bool","internalType":"bool"}],"stateMutability":"view"},{"type":"function","name":"lastUpdatedDepositCount","inputs":[],"outputs":[{"name":"","type":"uint32","internalType":"uint32"}],"stateMutability":"view"},{"type":"function","name":"maliciousBridgeAsset","inputs":[{"name":"destinationNetwork","type":"uint32","internalType":"uint32"},{"name":"destinationAddress","type":"address","internalType":"address"},{"name":"amount","type":"uint256","internalType":"uint256"},{"name":"token","type":"address","internalType":"address"},{"name":"forceUpdateGlobalExitRoot","type":"bool","internalType":"bool"}],"outputs":[],"stateMutability":"nonpayable"},{"type":"function","name":"networkID","inputs":[],"outputs":[{"name":"","type":"uint32","internalType":"uint32"}],"stateMutability":"view"},{"type":"function","name":"polygonRollupManager","inputs":[],"outputs":[{"name":"","type":"address","internalType":"address"}],"stateMutability":"view"},{"type":"function","name":"precalculatedWrapperAddress","inputs":[{"name":"originNetwork","type":"uint32","internalType":"uint32"},{"name":"originTokenAddress","type":"address","internalType":"address"},{"name":"name","type":"string","internalType":"string"},{"name":"symbol","type":"string","internalType":"string"},{"name":"decimals","type":"uint8","internalType":"uint8"}],"outputs":[{"name":"","type":"address","internalType":"address"}],"stateMutability":"view"},{"type":"function","name":"tokenInfoToWrappedToken","inputs":[{"name":"","type":"bytes32","internalType":"bytes32"}],"outputs":[{"name":"","type":"address","internalType":"address"}],"stateMutability":"view"},{"type":"function","name":"updateGlobalExitRoot","inputs":[],"outputs":[],"stateMutability":"nonpayable"},{"type":"function","name":"verifyMerkleProof","inputs":[{"name":"leafHash","type":"bytes32","internalType":"bytes32"},{"name":"smtProof","type":"bytes32[32]","internalType":"bytes32[32]"},{"name":"index","type":"uint32","internalType":"uint32"},{"name":"root","type":"bytes32","internalType":"bytes32"}],"outputs":[{"name":"","type":"bool","internalType":"bool"}],"stateMutability":"pure"},{"type":"function","name":"wrappedTokenToTokenInfo","inputs":[{"name":"","type":"address","internalType":"address"}],"outputs":[{"name":"originNetwork","type":"uint32","internalType":"uint32"},{"name":"originTokenAddress","type":"address","internalType":"address"}],"stateMutability":"view"},{"type":"event","name":"BridgeEvent","inputs":[{"name":"leafType","type":"uint8","indexed":false,"internalType":"uint8"},{"name":"originNetwork","type":"uint32","indexed":false,"internalType":"uint32"},{"name":"originAddress","type":"address","indexed":false,"internalType":"address"},{"name":"destinationNetwork","type":"uint32","indexed":false,"internalType":"uint32"},{"name":"destinationAddress","type":"address","indexed":false,"internalType":"address"},{"name":"amount","type":"uint256","indexed":false,"internalType":"uint256"},{"name":"metadata","type":"bytes","indexed":false,"internalType":"bytes"},{"name":"depositCount","type":"uint32","indexed":false,"internalType":"uint32"}],"anonymous":false},{"type":"event","name":"ClaimEvent","inputs":[{"name":"globalIndex","type":"uint256","indexed":false,"internalType":"uint256"},{"name":"originNetwork","type":"uint32","indexed":false,"internalType":"uint32"},{"name":"originAddress","type":"address","indexed":false,"internalType":"address"},{"name":"destinationAddress","type":"address","indexed":false,"internalType":"address"},{"name":"amount","type":"uint256","indexed":false,"internalType":"uint256"}],"anonymous":false},{"type":"event","name":"EmergencyStateActivated","inputs":[],"anonymous":false},{"type":"event","name":"EmergencyStateDeactivated","inputs":[],"anonymous":false},{"type":"event","name":"Initialized","inputs":[{"name":"version","type":"uint8","indexed":false,"internalType":"uint8"}],"anonymous":false},{"type":"event","name":"NewWrappedToken","inputs":[{"name":"originNetwork","type":"uint32","indexed":false,"internalType":"uint32"},{"name":"originTokenAddress","type":"address","indexed":false,"internalType":"address"},{"name":"wrappedTokenAddress","type":"address","indexed":false,"internalType":"address"},{"name":"metadata","type":"bytes","indexed":false,"internalType":"bytes"}],"anonymous":false},{"type":"error","name":"AlreadyClaimed","inputs":[]},{"type":"error","name":"AmountDoesNotMatchMsgValue","inputs":[]},{"type":"error","name":"DestinationNetworkInvalid","inputs":[]},{"type":"error","name":"EtherTransferFailed","inputs":[]},{"type":"error","name":"FailedTokenWrappedDeployment","inputs":[]},{"type":"error","name":"GasTokenNetworkMustBeZeroOnEther","inputs":[]},{"type":"error","name":"GlobalExitRootInvalid","inputs":[]},{"type":"error","name":"InvalidSmtProof","inputs":[]},{"type":"error","name":"MerkleTreeFull","inputs":[]},{"type":"error","name":"MessageFailed","inputs":[]},{"type":"error","name":"MsgValueNotZero","inputs":[]},{"type":"error","name":"NativeTokenIsEther","inputs":[]},{"type":"error","name":"NoValueInMessagesOnGasTokenNetworks","inputs":[]},{"type":"error","name":"NotValidAmount","inputs":[]},{"type":"error","name":"NotValidOwner","inputs":[]},{"type":"error","name":"NotValidSignature","inputs":[]},{"type":"error","name":"NotValidSpender","inputs":[]},{"type":"error","name":"OnlyEmergencyState","inputs":[]},{"type":"error","name":"OnlyNotEmergencyState","inputs":[]},{"type":"error","name":"OnlyRollupManager","inputs":[]}],"bytecode":{"object":"0x60808060405234620000c4575f549060ff8260081c1662000072575060ff8082161062000037575b6040516148629081620000c98239f35b60ff90811916175f557f7f26b83ff96e1f2b6a682f133852f6798a09c465da95921460cefb3847402498602060405160ff8152a15f62000027565b62461bcd60e51b815260206004820152602760248201527f496e697469616c697a61626c653a20636f6e747261637420697320696e697469604482015266616c697a696e6760c81b6064820152608490fd5b5f80fdfe6080806040526004361015610012575f80fd5b5f3560e01c90816315064c96146119f9575080632072f6c51461199c57806322e95f2c1461191a578063240ff3781461188657806327aef4e81461186b5780632dfdf0b51461184e578063318aee3d146118065780633c351e10146117de5780633cbc795b146117b85780633e197043146116f75780634b2f336d146116cf5780635ca1e165146116b5578063684445e9146115e05780637843298b1461158f57806379e2cf971461156157806381b1c1741461152f57806383c43a551461151457806383f24403146114dc5780638ed7e3f2146114b4578063aaa13cc21461142d578063b8b284d014611397578063bab161bf14611371578063be5831c71461134b578063c00f14ab1461130f578063cc4616321461126a578063ccaa2d1114610eb3578063cd586579146108a3578063d02103ca14610877578063dbc16976146107f8578063ee25560b146107ce578063f5efcd7914610638578063f811bff7146101c95763fb57083414610187575f80fd5b346101c5576104603660031901126101c55736610424116101c55760206101ac611a3e565b6101bc6104443591600435614441565b14604051908152f35b5f80fd5b346101c55760c03660031901126101c5576101e2611a18565b6101ea611a52565b9060443563ffffffff8116908181036101c557606435906001600160a01b039081831683036101c55761021b611a94565b926001600160401b039160a4358381116101c557366023820112156101c55761024e90369060248160040135910161394c565b915f549860ff8a60081c16159889809a61062b575b8015610614575b156105b857869260019b8b8d60ff198316175f556105a7575b5060688054610100600160c81b03191660089390931b64ffffffff00169290921760289190911b65010000000000600160c81b0316179055606c80546001600160a01b031990811698841698909817905516806103505750505050505061033e575b5f549061030060ff8360081c166102fb81614606565b614606565b82805561030957005b61ff0019165f556040519081527f7f26b83ff96e1f2b6a682f133852f6798a09c465da95921460cefb384740249890602090a1005b604051630d43a60960e11b8152600490fd5b90919293949550606d549163ffffffff60a01b9060a01b16916001600160401b0360c01b161717606d55805190828211610499578190610391606e54611b10565b601f8111610537575b50602090601f83116001146104b8575f926104ad575b50505f19600383901b1c191690861b17606e555b6040516020810160608152600d60808301526c2bb930b83832b21022ba3432b960991b60a083015260a06040830152600460c0830152630ae8aa8960e31b60e08301526012606083015260e0825261010082019282841090841117610499575f9260405261046e6020610435611d13565b9360405193849161046284610453818601998a815193849201611ca4565b84019151809386840190611ca4565b01038084520182611bc7565b519082f51690811561048757606f541617606f556102e5565b6040516305f7d84960e51b8152600490fd5b634e487b7160e01b5f52604160045260245ffd5b0151905087806103b0565b90889350601f19831691606e5f527f9930d9ff0dee0ef5ca2f7710ea66b8f84dd0f5f5351ecffe72b952cd9db7142a925f5b81811061051f57508411610507575b505050811b01606e556103c4565b01515f1960f88460031b161c191690558780806104f9565b8284015185558b9690940193602093840193016104ea565b909150606e5f527f9930d9ff0dee0ef5ca2f7710ea66b8f84dd0f5f5351ecffe72b952cd9db7142a601f840160051c8101916020851061059d575b84939291601f8b920160051c01915b82811061058f57505061039a565b5f81558594508a9101610581565b9091508190610572565b61ffff1916610101175f558c610283565b60405162461bcd60e51b815260206004820152602e60248201527f496e697469616c697a61626c653a20636f6e747261637420697320616c72656160448201526d191e481a5b9a5d1a585b1a5e995960921b6064820152608490fd5b50303b15801561026a5750600160ff8c161461026a565b50600160ff8c1610610263565b346101c557610646366139a0565b929a909394979599919660685460ff81166107bc5763ffffffff809160081c16908716036107aa575f968a6106a09461069a8f8f908d908f9c8e9d61068d8e8e369161394c565b60208151910120946145a2565b94613cd9565b606f5485908a906001600160a01b031680158614610764575050506106f06106e2916040519283916020830195630c035af960e11b87528c8b60248601613b97565b03601f198101835282611bc7565b519084895af16106fe613b68565b505b15610752576040805193845263ffffffff90941660208401526001600160a01b0391821693830193909352909216606083015260808201525f8051602061480d833981519152908060a081015b0390a1005b6040516337e391c360e01b8152600490fd5b610796926106e2949261077692613f9e565b6040519283916020830195630c035af960e11b87528c8b60248601613b97565b519082895af16107a4613b68565b50610700565b6040516302caf51760e11b8152600490fd5b604051630bc011ff60e21b8152600490fd5b346101c55760203660031901126101c5576004355f526069602052602060405f2054604051908152f35b346101c5575f3660031901126101c557606c546001600160a01b031633036108655760685460ff8116156108535760ff19166068557f1e5e34eea33501aecf2ebec9fe0e884a40804275ea7fe10b2ba084c8374308b35f80a1005b604051635386698160e01b8152600490fd5b604051631736745960e31b8152600490fd5b346101c5575f3660031901126101c55760685460405160289190911c6001600160a01b03168152602090f35b60c03660031901126101c5576108b7611a18565b6108bf611a52565b6108c7611aaa565b906108d0611ad4565b9260a4356001600160401b0381116101c5576108f0903690600401611ae3565b909360685460ff81166107bc57600260015414610e6e5763ffffffff90600260015560081c1663ffffffff8416146107aa576044359485925f9283926060926001600160a01b0383166109db5750505050505034036109c9576109b1926109ac92606d549263ffffffff8460a01c169360018060a01b0316610970611be8565b5f805160206147ed833981519152828761099c63ffffffff60535416858a8a8a60405197889788613a41565b0390a1602081519101209461453c565b614397565b6109bc575b60018055005b6109c4613ede565b6109b6565b60405163b89240f560e01b8152600490fd5b989796959293949834610e5c57606f546001600160a01b03848116911603610a2257505091610a1d6109b1989694926109ac98969460018060a01b0316613f56565b610970565b93509350965060018060a01b0387165f52606b60205260405f209260405193610a4a85611b48565b5463ffffffff81168552602090811c6001600160a01b0316908501818152939015610aad57505091610a1d63ffffffff6109ac979593610a976109b19a989660018060a01b038a16613f56565b51925116956001600160a01b0390921691613fe2565b925092505080959395610c13575b50506040516370a0823160e01b808252306004830152936020826024816001600160a01b0388165afa918215610bd2575f92610bdd575b50610b3590604051906323b872dd60e01b6020830152336024830152306044830152606482015260648152610b2681611b76565b6001600160a01b038516614666565b6040519384523060048501526020846024816001600160a01b0387165afa938415610bd2575f94610b9e575b508303928311610b8a576109b1936109ac939183610a1d63ffffffff60685460081c1695613fe2565b634e487b7160e01b5f52601160045260245ffd5b9093506020813d602011610bca575b81610bba60209383611bc7565b810103126101c557519286610b61565b3d9150610bad565b6040513d5f823e3d90fd5b9091506020813d602011610c0b575b81610bf960209383611bc7565b810103126101c5575190610b35610af2565b3d9150610bec565b806004116101c55763d505accf60e01b9082356001600160e01b031916828103610d4a575060e090830183900360031901126101c557610c5560048301611ac0565b610c6160248401611ac0565b92604481013591610c7460848301611cea565b6001600160a01b039182169590911690338603610d3857308203610d2657888403610d145760c49360ff926040519760208901978852602489015260448801526064870152606483013560848701521660a485015260a481013582850152013560e483015260e482526101208201908282106001600160401b03831117610499575f928392604052519082865af150610d0b613b68565b505b8580610abb565b6040516303fffc4b60e01b8152600490fd5b60405163750643af60e01b8152600490fd5b60405163912ecce760e01b8152600490fd5b6323f2ebc360e21b9250631c0d143d60e21b01610e4a5761010090830183900360031901126101c557610d7f60048301611ac0565b91610d8c60248201611ac0565b926084820135908115158092036101c557610da960a48401611cea565b6001600160a01b039182169590911691338603610d3857308303610d265760ff92604051966020880196875260248801526044870152604484013560648701526064840135608487015260a48601521660c484015260c481013560e484015260e46101049101358184015282526101408201908282106001600160401b03831117610499575f928392604052519082865af150610e44613b68565b50610d0d565b604051637141605d60e11b8152600490fd5b60405163798ee6f160e01b8152600490fd5b60405162461bcd60e51b815260206004820152601f60248201527f5265656e7472616e637947756172643a207265656e7472616e742063616c6c006044820152606490fd5b346101c557610ec1366139a0565b9599919660689b919598939b549360ff85166107bc5763ffffffff809560081c16858716036107aa578a610f159461069a8f8f908d908f9b610f068f8f90369161394c565b9c8d5160209e8f01209461453c565b6001600160a01b03938685169384610fe1575050505050606f541680155f14610fbe57505f604051610f4681611b91565b525f80808084895af1610f57613b68565b5015610fac575f8051602061480d8339815191529461074d925b60405195869586919363ffffffff6080949297969560a0850198855216602084015260018060a01b0380921660408401521660608201520152565b604051630ce8f45160e31b8152600490fd5b9461074d92610fdc83835f8051602061480d83398151915299613f9e565b610f71565b9091929394606d5481811687149081611259575b501561103d575050505050505f60405161100e81611b91565b525f80808084895af161101f613b68565b5015610fac575f8051602061480d8339815191529461074d92610f71565b606854959a9697958a8516929060081c851683036110af57505060405163a9059cbb60e01b948101949094525050506001600160a01b0383166024820152604480820185905281525f8051602061480d8339815191529661074d94939291610fdc916110aa606483611bc7565b614666565b60405160e08c901b6001600160e01b031916818801908152606089901b6001600160601b031916600482015295999897969495906110f081601884016106e2565b51902094855f52606a85528260405f20541680155f1461123057508561111736838561394c565b61111f611d13565b906111518860405180938261113d8184019788815193849201611ca4565b820161046282518093868085019101611ca4565b51905ff59283168015610487575f8051602061480d8339815191529d61074d9b7f490e59a1701b938786ac72570a1efeac994a3dbe96e2e883e19e902ace6e6a39986111a18d8d61122899613f9e565b5f52606a885260405f20836001600160601b0360a01b825416179055604051906111ca82611b48565b87825288820190838252845f52606b8a5260405f20925116825491640100000000600160c01b0390518b1b16916001600160401b0360c01b161717905560405196879687528601526040850152608060608501526080840191613a99565b0390a1610f71565b925050505f8051602061480d8339815191529a5061074d9750610fdc9350869250859150613f9e565b60a01c85168b86161490508c610ff5565b346101c55760403660031901126101c557611283611a18565b61128b611a2b565b9063ffffffff918260685460081c161580611303575b156112cd5750602091165b600160ff82161b9060081c5f52606982528060405f20541614604051908152f35b67ffffffff000000008382169160201b16908082046401000000001490151715610b8a576020926112fe9216613ed1565b6112ac565b506001838216146112a1565b346101c55760203660031901126101c55761134761133361132e611a68565b613fe2565b604051918291602083526020830190611cc5565b0390f35b346101c5575f3660031901126101c557602063ffffffff60685460c81c16604051908152f35b346101c5575f3660031901126101c557602063ffffffff60685460081c16604051908152f35b346101c55760a03660031901126101c5576113b0611a18565b6113b8611a52565b6044359060643580151581036101c5576084356001600160401b0381116101c5576113e7903690600401611ae3565b93909260ff606854166107bc57606f546001600160a01b031695861561141b576114148361141998613f56565b613ab9565b005b60405163dde3cda760e01b8152600490fd5b346101c55760a03660031901126101c557611446611a18565b61144e611a52565b906001600160401b036044358181116101c55761146f903690600401613982565b906064359081116101c557611488903690600401613982565b6084359160ff831683036101c5576020946114a294613bed565b6040516001600160a01b039091168152f35b346101c5575f3660031901126101c557606c546040516001600160a01b039091168152602090f35b346101c5576104403660031901126101c55736610424116101c557602061150c611504611a3e565b600435614441565b604051908152f35b346101c5575f3660031901126101c557611347611333611d13565b346101c55760203660031901126101c5576004355f52606a602052602060018060a01b0360405f205416604051908152f35b346101c5575f3660031901126101c55763ffffffff60685460c81c166053541161158757005b611419613ede565b346101c55760603660031901126101c55760206114a26115ad611a18565b6115b5611a52565b6115bd611a7e565b906115c782614075565b906115da6115d484614012565b936140d6565b93613bed565b346101c55760a03660031901126101c5576115f9611a18565b611601611a52565b6044359161160d611aaa565b611615611ad4565b9363ffffffff938460685460081c169384868216146107aa57611688956109ac956001600160a01b03958087811661168e57505050606d5494818660a01c169516905f805160206147ed833981519152828761099c611672611be8565b945b60535416858a8a8a60405197889788613a41565b61158757005b82829493985061099c6116af5f805160206147ed8339815191529493613fe2565b94611674565b346101c5575f3660031901126101c557602061150c6142f6565b346101c5575f3660031901126101c557606f546040516001600160a01b039091168152602090f35b346101c55760e03660031901126101c55760043560ff811681036101c55761171d611a2b565b90611726611a7e565b6064359063ffffffff821682036101c557602093611742611a94565b90604051938685019560ff60f81b9060f81b16865263ffffffff60e01b809260e01b1660218601526001600160601b0319809460601b16602586015260e01b16603984015260601b16603d82015260a435605182015260c4356071820152607181526117ad81611b76565b519020604051908152f35b346101c5575f3660031901126101c557602063ffffffff606d5460a01c16604051908152f35b346101c5575f3660031901126101c557606d546040516001600160a01b039091168152602090f35b346101c55760203660031901126101c55760406001600160a01b038061182a611a68565b165f52606b602052815f20549082519163ffffffff8116835260201c166020820152f35b346101c5575f3660031901126101c5576020605354604051908152f35b346101c5575f3660031901126101c557611347611333611be8565b60803660031901126101c55761189a611a18565b6118a2611a52565b906044359081151582036101c5576064356001600160401b0381116101c5576118cf903690600401611ae3565b92909160ff606854166107bc5734151580611906575b6118f457611419943491613ab9565b6040516301bd897160e61b8152600490fd5b50606f546001600160a01b031615156118e5565b346101c55760403660031901126101c557611933611a18565b6106e261197b611941611a52565b60405160e09490941b6001600160e01b0319166020850190815260609190911b6001600160601b0319166024850152929182906038820190565b5190205f52606a602052602060018060a01b0360405f205416604051908152f35b346101c5575f3660031901126101c557606c546001600160a01b031633036108655760685460ff81166107bc5760ff19166001176068557f2261efe5aef6fedc1fd1550b25facc9181745623049c7901287030b9ad1a54975f80a1005b346101c5575f3660031901126101c55760209060ff6068541615158152f35b6004359063ffffffff821682036101c557565b6024359063ffffffff821682036101c557565b610424359063ffffffff821682036101c557565b602435906001600160a01b03821682036101c557565b600435906001600160a01b03821682036101c557565b604435906001600160a01b03821682036101c557565b608435906001600160a01b03821682036101c557565b606435906001600160a01b03821682036101c557565b35906001600160a01b03821682036101c557565b6084359081151582036101c557565b9181601f840112156101c5578235916001600160401b0383116101c557602083818601950101116101c557565b90600182811c92168015611b3e575b6020831014611b2a57565b634e487b7160e01b5f52602260045260245ffd5b91607f1691611b1f565b604081019081106001600160401b0382111761049957604052565b6001600160401b03811161049957604052565b60a081019081106001600160401b0382111761049957604052565b602081019081106001600160401b0382111761049957604052565b606081019081106001600160401b0382111761049957604052565b90601f801991011681019081106001600160401b0382111761049957604052565b604051905f82606e5491611bfb83611b10565b80835292600190818116908115611c825750600114611c24575b50611c2292500383611bc7565b565b606e5f90815291507f9930d9ff0dee0ef5ca2f7710ea66b8f84dd0f5f5351ecffe72b952cd9db7142a5b848310611c675750611c2293505081016020015f611c15565b81935090816020925483858a01015201910190918592611c4e565b905060209250611c2294915060ff191682840152151560051b8201015f611c15565b5f5b838110611cb55750505f910152565b8181015183820152602001611ca6565b90602091611cde81518092818552858086019101611ca4565b601f01601f1916010190565b359060ff821682036101c557565b6001600160401b03811161049957601f01601f191660200190565b60405190611ba082018281106001600160401b03821117610499576040908152611b6683527f6101006040523480156200001257600080fd5b5060405162001b66380380620060208401527f1b6683398101604081905262000035916200028d565b82826003620000458382908301527f620003a1565b506004620000548282620003a1565b50503360c0525060ff811660608301527f60e052466080819052620000739062000080565b60a052506200046d9150505660808301527f5b60007f8b73c3c69bb8fe3d512ecc4cf759cc79239f7b179b0ffacaa9a75d5260a08301527f2b39400f620000ad6200012e565b80516020918201206040805180820182526060c08301527f018152603160f81b90840152805192830193909352918101919091527fc89efd60e08301527faa54c0f20c7adf612882df0950f5a951637e0307cdcb4c672f298b8bc66060826101008301527f0152608081018390523060a082015260c00160405160208183030381529060406101208301527f52805190602001209050919050565b6060600380546200013f9062000312565b6101408301527f80601f01602080910402602001604051908101604052809291908181526020016101608301527f8280546200016d9062000312565b8015620001be5780601f10620001925761016101808301527e808354040283529160200191620001be565b820191906000526020600020906101a08301527f5b815481529060010190602001808311620001a057829003601f168201915b506101c08301527f50505050905090565b634e487b7160e01b600052604160045260246000fd5b606101e08301527e82601f830112620001f057600080fd5b81516001600160401b0380821115626102008301527e020d576200020d620001c8565b604051601f8301601f19908116603f0116816102208301527f01908282118183101715620002385762000238620001c8565b816040528381526102408301527f6020925086838588010111156200025557600080fd5b600091505b83821015626102608301527e027957858201830151818301840152908201906200025a565b6000938101906102808301527f920192909252949350505050565b600080600060608486031215620002a357606102a08301527e80fd5b83516001600160401b0380821115620002bb57600080fd5b620002c96102c08301527f87838801620001de565b94506020860151915080821115620002e057600080fd6102e08301527f5b50620002ef86828701620001de565b925050604084015160ff8116811462006103008301527f030757600080fd5b809150509250925092565b600181811c90821680620003276103208301527f57607f821691505b6020821081036200034857634e487b7160e01b60005260226103408301527f60045260246000fd5b50919050565b601f8211156200039c57600081815260206103608301527f8120601f850160051c81016020861015620003775750805b601f850160051c826103808301527f0191505b81811015620003985782815560010162000383565b5050505b5050506103a08301527f565b81516001600160401b03811115620003bd57620003bd620001c8565b62006103c08301527f03d581620003ce845462000312565b846200034e565b602080601f83116001816103e08301527f146200040d5760008415620003f45750858301515b600019600386901b1c19166104008301527f600185901b17855562000398565b600085815260208120601f198616915b82816104208301527f10156200043e578886015182559484019460019091019084016200041d565b506104408301527f858210156200045d5787850151600019600388901b60f8161c191681555b50506104608301527f505050600190811b01905550565b60805160a05160c05160e0516116aa6200046104808301527fbc6000396000610237015260008181610307015281816105c001526106a701526104a08301527f600061053a015260008181610379015261050401526116aa6000f3fe608060406104c08301527f5234801561001057600080fd5b50600436106101775760003560e01c806370a06104e08301527f8231116100d8578063a457c2d71161008c578063d505accf11610066578063d56105008301527f05accf1461039b578063dd62ed3e146103ae578063ffa1ad74146103f45760006105208301527f80fd5b8063a457c2d71461034e578063a9059cbb14610361578063cd0d0096146105408301527f61037457600080fd5b806395d89b41116100bd57806395d89b41146102e757806105608301527f639dc29fac146102ef578063a3c573eb1461030257600080fd5b806370a082316105808301527f146102915780637ecebe00146102c757600080fd5b806330adf81f1161012f576105a08301527f80633644e515116101145780633644e5151461026157806339509351146102696105c08301527f57806340c10f191461027c57600080fd5b806330adf81f14610209578063313c6105e08301527fe5671461023057600080fd5b806318160ddd1161016057806318160ddd1461016106008301527fbd57806320606b70146101cf57806323b872dd146101f657600080fd5b8063066106208301527ffdde031461017c578063095ea7b31461019a575b600080fd5b610184610430566106408301527f5b60405161019191906113e4565b60405180910390f35b6101ad6101a83660046106608301527f611479565b6104c2565b6040519015158152602001610191565b6002545b60406106808301527f51908152602001610191565b6101c17f8b73c3c69bb8fe3d512ecc4cf759cc796106a08301527f239f7b179b0ffacaa9a75d522b39400f81565b6101ad6102043660046114a3566106c08301527f5b6104dc565b6101c17f6e71edae12b1b97f4d1f60370fef10105fa2faae01266106e083015272114a169c64845d6126c981565b60405160ff7f60681b6107008301526c168152602001610191565b61016107208301527fc1610500565b6101ad610277366004611479565b61055c565b61028f61028a366107408301527f6004611479565b6105a8565b005b6101c161029f3660046114df565b73ffffff6107608301526ee99fff6f7ead9fdf7e6fad9fbf6fdf196107808301527f5490565b6101c16102d53660046114df565b60056020526000908152604090206107a08301527f5481565b610184610680565b61028f6102fd366004611479565b61068f565b616107c08301526203297f60e81b6107e0830152616f6f66205596d810145d60b21b036108008301527f168152602001610191565b6101ad61035c366004611479565b61075e565b610161082083015274ad61036f366004611479565b61082f565b6101c17f60581b6108408301526a81565b61028f6103a936606108608301527f04611501565b61083d565b6101c16103bc366004611574565b73ffffffffffff610880830152716e7de99fff6f7ead9ffe9fdf6f7ead9fbf7f196108a08301527f832093909416825291909152205490565b6101846040518060400160405280606108c0830152670181526020017f3160c01b6108e08301527881525081565b60606003805461043f906115a7565b80601f016109008301527f60208091040260200160405190810160405280929190818152602001828054616109208301527f046b906115a7565b80156104b85780601f1061048d57610100808354040283526109408301527f91602001916104b8565b820191906000526020600020905b81548152906001016109608301527f9060200180831161049b57829003601f168201915b5050505050905090565b606109808301527e336104d0818585610b73565b60019150505b92915050565b6000336104ea856109a08301527f8285610d27565b6104f5858585610dfe565b506001949350505050565b60007f6109c08301525f6109e0830152754614610537576105324661106d565b905090565b507f60501b610a008301526990565b33600081815260610a2083015260016a580824205498102020c81d60a21b03610a408301527f871684529091528120549091906104d090829086906105a3908790611629565b610a60830152648100000000661842dcd596ccdd60ca1b03610a808301526316146106610aa0830152690392bb02028bf8461bcd60b51b610ac083015279815260206004820152603060248201527f546f6b656e57726170610ae08301527f7065643a3a6f6e6c794272696467653a204e6f7420506f60448201527f6c7967610b008301527f6f6e5a6b45564d42726964676500000000000000000000000000000000606482610b208301527f01526084015b60405180910390fd5b61067c8282611135565b5050565b606060610b408301527f04805461043f906115a7565b3373ffffffffffffffffffffffffffffffffffff610b608301526001608160e81b0319610b808301526cb0a3083aa2bb02028bf8461bcd607d1b610ba083015272815260206004820152603060248201527f546f610bc08301527f6b656e577261707065643a3a6f6e6c794272696467653a204e6f7420506f6044610be0830152738201527f6c79676f6e5a6b45564d42726964676560601b610c008301527b6064820152608401610669565b61067c8282611228565b3360008181610c208301527f5260016020908152604080832073ffffffffffffffffffffffffffffffffffff610c408301527fffff8716845290915281205490919083811015610822576040517f08c379a000610c60830152648152602060610c808301527f04820152602560248201527f45524332303a2064656372656173656420616c6c610ca08301527f6f77616e63652062656c6f7760448201527f207a65726f000000000000000000610cc08301526d6064820152608401610669565b61610ce08301527f04f58286868403610b73565b6000336104d0818585610dfe565b834211156108610d00830152690662bb02028bf8461bcd60b51b610d20830152798152602060048201526024808201527f546f6b656e5772617070610d408301527f65643a3a7065726d69743a204578706972656420706560448201527f726d6974610d608301526360648201610d808301526178ea691498210058419a5596dd60b21b03610da08301527f600090815260056020526040812080547f6e71edae12b1b97f4d1f60370fef10610dc08301527f105fa2faae0126114a169c64845d6126c9918a918a918a919086610926836116610de08301527f3c565b9091555060408051602081019690965273ffffffffffffffffffffffff610e00830152776b7ae96f79fead6d6f6ee99f9f7bfead9f7f7cfead9f5f7d19610e208301527f015260c0810186905260e0016040516020818303038152906040528051906020610e4083015273012090506000610991610500565b6040517f190160601b610e608301526d6020820152602281019190915260610e8083015260016c8502030720a4c0c402c08100a360971b03610ea0830152721f7e7bfcfe7ead7d7dad7fae9fdf6e7dfedf9f19610ec08301527e80855291840180845281905260ff8916928401929092526060830187905260610ee08301527f8083018690529092509060019060a0016020604051602081039080840390855a610f008301527ffa158015610a55573d6000803e3d6000fd5b50506040517fffffffffffffffff610f20830152681ffeae6eafaf8c000019610f408301526d7ee9ea7fea6f9ef52fa8af768c0019610f60830152623a5fa360521b19610f8083015275e9eba49ef4a3a89fbfae80f73c865fffffffffffffff19610fa08301526a8152602060048201526027610fc08301527f60248201527f546f6b656e577261707065643a3a7065726d69743a20496e7661610fe0830152726c696420736960448201527f676e617475726560681b611000830152736064820152608401610669565b610b678a8a8a616110208301527f0b73565b50505050505050505050565b73ffffffffffffffffffffffffffffff6110408301527a7ce99ef3eaa89fbfae80f73c865fffffffffffffffffffffffffff19611060830152708152602060048201526024808201527f456110808301527f524332303a20617070726f76652066726f6d20746865207a65726f20616464606110a083015268448201527f7265737360b81b6110c08301527a6064820152608401610669565b73ffffffffffffffffffffffffff6110e0830152787de99ef347a89fbfae80f73c865fffffffffffffffffffffff196111008301526e8152602060048201526022602482016111208301527f527f45524332303a20617070726f766520746f20746865207a65726f2061646461114083015269726560448201527f737360b01b611160830152776064820152608401610669565b73ffffffffffffffffffff611180830152757c7ee99fff7e7ead9ffe9fdf6f7ead9fbf7f7cdf6b78196111a08301527f168084529482529182902085905590518481527f8c5be1e5ebec7d5bd14f71426111c08301527f7d1e84f3dd0314c0f7b2291e5b200ac8c7c3b92591015b60405180910390a3506111e0830152667c7ee99fff6f7f6414141596dd60da1b036112008301527f52600160209081526040808320938616835292905220547fffffffffffffffff611220830152677eeb9ef207a87e7e196112408301526c80ab086f5abb02028bf8461bcd60951b61126083015275815260206004820152601d60248201527f45524332306112808301527f3a20696e73756666696369656e7420616c6c6f77616e636500000060448201526112a08301527f606401610669565b610df88484848403610b73565b50505050565b73ffffffff6112c08301526f7ce99ef15ea89fbfae80f73c865fffff196112e08301526581526020600461130083018190527f820152602560248201527f45524332303a207472616e736665722066726f6d2061132084015275746865207a65726f20616460448201527f647265737360501b6113408401526e6064820152608401610669565b73ff61136084018190526c7de99ef0bba89fbfae80f73c861961138085015262815260600560fd1b016113a08501527f206004820152602360248201527f45524332303a207472616e7366657220746f6113c08501527f20746865207a65726f206164647260448201527f6573730000000000000000006113e08501526b606482015260840161066956611400850152697ce99fff6f7ead9fdf7f6116dd60f21b036114208501527f9052604090205481811015610ffa576040517f08c379a00000000000000000006114408501526c815260206004820152602660246114608501527f8201527f45524332303a207472616e7366657220616d6f756e742065786365656114808501526f6473206260448201527f616c616e636560801b6114a0850152756064820152608401610669565b73ffffffffffffffff6114c0850152737b7ee99fff7e7ead9fdf7e7ead9fbf7f7cdf7878196114e08501527f03905593871680835291849020805487019055925185815290927fddf252ad1b6115008501527fe2c89b69c2b068fc378daa952ba7f163c4a11628f55a4df523b3ef91016040516115208501527f80910390a3610df8565b60007f8b73c3c69bb8fe3d512ecc4cf759cc79239f7b6115408501527f179b0ffacaa9a75d522b39400f611098610430565b80516020918201206040806115608501526b518082018252600181527f3160a01b6115808501527490840152805192830193909352918101919091527f6115a08501527fc89efdaa54c0f20c7adf612882df0950f5a951637e0307cdcb4c672f298b8bc66115c08501527f6060820152608081018390523060a082015260c00160405160208183030381526115e08501527f90604052805190602001209050919050565b73ffffffffffffffffffffffffff611600850152787de99eee4da89fbfae80f73c865fffffffffffffffffffffff196116208501526e815260206004820152601f602482016116408501527f527f45524332303a206d696e7420746f20746865207a65726f206164647265736116608501527f73006044820152606401610669565b80600260008282546111c4919061162956611680850152647de99fff7f6616e4245554141d60ca1b036116a08501527f815260208181526040808320805486019055518481527fddf252ad1be2c89b696116c08501527fc2b068fc378daa952ba7f163c4a11628f55a4df523b3ef9101604051809103906116e0850152657de99eed34a96528d4141596dd60d21b03611700850152670302028bf8461bcd60c51b6117208501527b815260206004820152602160248201527f45524332303a206275726e6117408501527f2066726f6d20746865207a65726f2061646472657360448201527f7300000000611760850152646064820152611780850152627de9a06818210058419a5596dd60ba1b036117a08501527e9081526020819052604090205481811015611381576040517f08c379a000006117c08501526117e08401919091527f820152602260248201527f45524332303a206275726e20616d6f756e742065786118008401527263656564732062616c616e60448201527f636560681b6118208401526118408301526c7ce99fff7e7ead9fdf7e7ead9f196118608301527f408083208686039055600280548790039055518581529192917fddf252ad1be26118808301527fc89b69c2b068fc378daa952ba7f163c4a11628f55a4df523b3ef9101610d1a566118a08301527f5b600060208083528351808285015260005b81811015611411578581018301516118c08301527f8582016040015282016113f5565b5060006040828601015260407fffffffffff6118e0830152651f9fe07cfee9196119008301527f8501019250505092915050565b803573ffffffffffffffffffffffffffffffff6119208301527fffffffff8116811461147457600080fd5b919050565b600080604083850312156119408301527f61148c57600080fd5b61149583611450565b946020939093013593505050565b6119608301527f6000806000606084860312156114b857600080fd5b6114c184611450565b92506119808301527f6114cf60208501611450565b9150604084013590509250925092565b600060206119a08301527f82840312156114f157600080fd5b6114fa82611450565b9392505050565b60006119c08301527f80600080600080600060e0888a03121561151c57600080fd5b611525886114506119e08301527f565b965061153360208901611450565b95506040880135945060608801359350611a008301527f608088013560ff8116811461155757600080fd5b9699959850939692959460a0611a208301527f840135945060c09093013592915050565b600080604083850312156115875760611a408301527e80fd5b61159083611450565b915061159e60208401611450565b9050925092611a608301527f9050565b600181811c908216806115bb57607f821691505b6020821081036115611a8083015266f4577f4e487b7160c81b611aa08301527c600052602260045260246000fd5b50919050565b7f4e487b7100000000611ac0830152676000526011600452611ae08301527f60246000fd5b808201808211156104d6576104d66115fa565b60007fffffffff611b00830152637dfc9ee919611b208301527f6d5761166d6115fa565b506001019056fea26469706673582212208d88fee561611b408301527fcff7120d381c345cfc534cef8229a272dc5809d4bbb685ad67141164736f6c63611b608301526543000811003360d01b611b80830152565b92919261395882611cf8565b916139666040519384611bc7565b8294818452818301116101c5578281602093845f960137010152565b9080601f830112156101c55781602061399d9335910161394c565b90565b6109206003198201126101c557610404908082116101c557600492610804928284116101c5579235916108243591610844359163ffffffff906108643582811681036101c557926001600160a01b03916108843583811681036101c557936108a43590811681036101c557926108c43590811681036101c557916108e4359161090435906001600160401b0382116101c557613a3d918d01611ae3565b9091565b9591613a92939460e096929998995f895263ffffffff968780921660208b015260018060a01b0380941660408b015216606089015216608087015260a08601526101008060c0870152850190611cc5565b9416910152565b908060209392818452848401375f828201840152601f01601f1916010190565b929493919063ffffffff938460685460081c1693858216908582146107aa57613b5a975f805160206147ed833981519152613b4b936109ac996053541690604051918291600183528b6020840152336040840152606083015260018060a01b03891660808301528960a0830152613b3b6101008060c085015283018688613a99565b9060e08301520390a1369161394c565b602081519101209333906145a2565b613b6057565b611c22613ede565b3d15613b92573d90613b7982611cf8565b91613b876040519384611bc7565b82523d5f602084013e565b606090565b63ffffffff61399d959360609360018060a01b031683521660208201528160408201520191613a99565b91613a9260ff91613bdf604094979697606087526060870190611cc5565b908582036020870152611cc5565b60405160e09190911b6001600160e01b031916602080830191825260609390931b6001600160601b0319166024830152601882529194601f19949392613c8892879291613c6b91613c3f603882611bc7565b51902096613c4b611d13565b96613c5f604051948592878401998a613bc1565b03908101835282611bc7565b60405193849161046284610453818601998a815193849201611ca4565b5190206040519283019160ff60f81b83523060601b60218501526035840152605583015260558252608082018281106001600160401b0382111761049957604052905190206001600160a01b031690565b6068546040805160208082018881528284018a905283835298999298909760289490941c6001600160a01b03169691613d1181611bac565b5190209888516312bd9b1960e11b815260049a8b82015288816024815f809c5af1908115613ec7578891613e96575b5015613e8757869568010000000000000000831615613e315750509063ffffffff613d6e92169384916144b8565b03613e2157908492915b63ffffffff918260685460081c161580613e15575b15613dc6575016926069905b600160ff86161b9460081c83525220818154188091551615613db9575050565b51630c8d9eab60e31b8152fd5b92935067ffffffff0000000082841693861b16928084046401000000001490151715613e0257859392606992613dfc9216613ed1565b93613d99565b634e487b7160e01b845260118752602484fd5b50600183821614613d8d565b84516338105f3b60e21b81528690fd5b919550925063ffffffff918286891c169260018401818111613e7457961694613e66939291613e619187916144b8565b6144b8565b03613e215790849291613d78565b634e487b7160e01b895260118c52602489fd5b8851622f6fad60e01b81528a90fd5b90508881813d8311613ec0575b613ead8183611bc7565b81010312613ebc57515f613d40565b8780fd5b503d613ea3565b8a513d8a823e3d90fd5b91908201809211610b8a57565b6053546068805463ffffffff60c81b191660c89290921b63ffffffff60c81b16919091179081905560281c6001600160a01b0316613f1a6142f6565b813b156101c5575f916024839260405194859384926333d6247d60e01b845260048401525af18015610bd257613f4d5750565b611c2290611b63565b6001600160a01b0316803b156101c557604051632770a7eb60e21b815233600482015260248101929092525f908290818381604481015b03925af18015610bd257613f4d5750565b6001600160a01b031691823b156101c5576040516340c10f1960e01b81526001600160a01b0390921660048301526024820152905f90829081838160448101613f8d565b61399d613fee82614075565b6106e2614003613ffd85614012565b946140d6565b60405194859360208501613bc1565b5f809160405160208101906395d89b4160e01b82526004815261403481611b48565b51915afa614040613b68565b901561404f5761399d906141ae565b5060405161405c81611b48565b60098152681393d7d4d6535093d360ba1b602082015290565b5f809160405160208101906306fdde0360e01b82526004815261409781611b48565b51915afa6140a3613b68565b90156140b25761399d906141ae565b506040516140bf81611b48565b60078152664e4f5f4e414d4560c81b602082015290565b60405163313ce56760e01b6020820190815260048252906140f681611b48565b5f928392839251915afa614108613b68565b9080614142575b1561413b5760208180518101031261413757602001519060ff82168203614134575090565b80fd5b5080fd5b5050601290565b50602081511461410f565b6040519061415a82611b48565b60128252714e4f545f56414c49445f454e434f44494e4760701b6020830152565b90815181101561418c570160200190565b634e487b7160e01b5f52603260045260245ffd5b5f198114610b8a5760010190565b805160408110614226575080518101906020818184019303126101c5576020810151906001600160401b0382116101c5570181603f820112156101c55760208101516141f981611cf8565b926142076040519485611bc7565b818452604082840101116101c55761399d916040602085019101611ca4565b60209081036142ec575f805b828110806142cf575b1561424e57614249906141a0565b614232565b919282156142c35761425f83611cf8565b9361426d6040519586611bc7565b838552601f1961427c85611cf8565b01903690860137815b838110614293575050505090565b6142be906001600160f81b03196142aa828561417b565b5116841a6142b8828861417b565b536141a0565b614285565b5050505061399d61414d565b506001600160f81b03196142e3828661417b565b5116151561423b565b505061399d61414d565b5f605354819082915b6020938484101561438f57906143659160018085871c16145f1461436b57846033015490604080519188830193845281830152815261433d81611bac565b519020945b604080519182019280845281830152815261435c81611bac565b519020926141a0565b916142ff565b60408051908782019283528381830152815261438681611bac565b51902094614342565b935050505090565b60535463ffffffff81101561441e576143af906141a0565b90816053555f905b60208083101561440a5760018085851c161461440157906143fb9183603301549160409081519283019384528183015281526143f281611bac565b519020916141a0565b906143b7565b50915060330155565b634e487b7160e01b5f52600160045260245ffd5b6040516377ae67b360e11b8152600490fd5b90602081101561418c5760051b0190565b9190915f905b6020808310156144b2579061448b9160018063ffffffff8816861c16145f146144915760408051918201928560051b6024013584528183015281526143f281611bac565b90614447565b604080519182019283528460051b602401358183015281526143f281611bac565b50925050565b92909192905f915b60208084101561453457906145099160018063ffffffff8916871c16145f1461450f576144ed8587614430565b3591604090815192830193845281830152815261435c81611bac565b916144c0565b6145198587614430565b35604090815192830193845281830152815261435c81611bac565b509350915050565b939194926040519460208601965f885263ffffffff60e01b809260e01b1660218801526001600160601b0319809460601b16602588015260e01b16603986015260601b16603d840152605183015260718201526071815261459c81611b76565b51902090565b93919492604051946020860196600160f81b885263ffffffff60e01b809260e01b1660218801526001600160601b0319809460601b16602588015260e01b16603986015260601b16603d840152605183015260718201526071815261459c81611b76565b1561460d57565b60405162461bcd60e51b815260206004820152602b60248201527f496e697469616c697a61626c653a20636f6e7472616374206973206e6f74206960448201526a6e697469616c697a696e6760a81b6064820152608490fd5b60018060a01b0316906146c460405161467e81611b48565b6020938482527f5361666545524332303a206c6f772d6c6576656c2063616c6c206661696c6564858301525f808587829751910182855af16146be613b68565b9161474f565b8051806146d2575b50505050565b81849181010312614137578201519081159182150361413457506146f8578080806146cc565b6084906040519062461bcd60e51b82526004820152602a60248201527f5361666545524332303a204552433230206f7065726174696f6e20646964206e6044820152691bdd081cdd58d8d9595960b21b6064820152fd5b919290156147b15750815115614763575090565b3b1561476c5790565b60405162461bcd60e51b815260206004820152601d60248201527f416464726573733a2063616c6c20746f206e6f6e2d636f6e74726163740000006044820152606490fd5b8251909150156147c45750805190602001fd5b60405162461bcd60e51b8152602060048201529081906147e8906024830190611cc5565b0390fdfe501781209a1f8899323b96b4ef08b168df93e0a90c673d1e4cce39366cb62f9b1df3f2a973a00d6635911755c260704e95e8a5876997546798770f76396fda4da2646970667358221220c5f9ebbe8dd1dc6abecab591be90c603fbc0aed789d290fdad9ce18ba67b6c2d64736f6c63430008140033","linkReferences":{}},"methodIdentifiers":{"BASE_INIT_BYTECODE_WRAPPED_TOKEN()":"83c43a55","WETHToken()":"4b2f336d","activateEmergencyState()":"2072f6c5","bridgeAsset(uint32,address,uint256,address,bool,bytes)":"cd586579","bridgeMessage(uint32,address,bool,bytes)":"240ff378","bridgeMessageWETH(uint32,address,uint256,bool,bytes)":"b8b284d0","calculateRoot(bytes32,bytes32[32],uint32)":"83f24403","calculateTokenWrapperAddress(uint32,address,address)":"7843298b","claimAsset(bytes32[32],bytes32[32],uint256,bytes32,bytes32,uint32,address,uint32,address,uint256,bytes)":"ccaa2d11","claimMessage(bytes32[32],bytes32[32],uint256,bytes32,bytes32,uint32,address,uint32,address,uint256,bytes)":"f5efcd79","claimedBitMap(uint256)":"ee25560b","deactivateEmergencyState()":"dbc16976","depositCount()":"2dfdf0b5","gasTokenAddress()":"3c351e10","gasTokenMetadata()":"27aef4e8","gasTokenNetwork()":"3cbc795b","getLeafValue(uint8,uint32,address,uint32,address,uint256,bytes32)":"3e197043","getRoot()":"5ca1e165","getTokenMetadata(address)":"c00f14ab","getTokenWrappedAddress(uint32,address)":"22e95f2c","globalExitRootManager()":"d02103ca","initialize(uint32,address,uint32,address,address,bytes)":"f811bff7","isClaimed(uint32,uint32)":"cc461632","isEmergencyState()":"15064c96","lastUpdatedDepositCount()":"be5831c7","maliciousBridgeAsset(uint32,address,uint256,address,bool)":"684445e9","networkID()":"bab161bf","polygonRollupManager()":"8ed7e3f2","precalculatedWrapperAddress(uint32,address,string,string,uint8)":"aaa13cc2","tokenInfoToWrappedToken(bytes32)":"81b1c174","updateGlobalExitRoot()":"79e2cf97","verifyMerkleProof(bytes32,bytes32[32],uint32,bytes32)":"fb570834","wrappedTokenToTokenInfo(address)":"318aee3d"},"id":5}