{"abi":[{"type":"function","name":"last","inputs":[],"outputs":[{"name":"","type":"bytes32","internalType":"bytes32"}],"stateMutability":"view"},{"type":"function","name":"verify","inputs":[{"name":"input160","type":"bytes","internalType":"bytes"}],"outputs":[],"stateMutability":"nonpayable"}],"bytecode":{"object":"0x6080604052348015600e575f5ffd5b5061035e8061001c5f395ff3fe608060405234801561000f575f5ffd5b5060043610610034575f3560e01c806347799da8146100385780638e760afe14610056575b5f5ffd5b610040610072565b60405161004d9190610103565b60405180910390f35b610070600480360381019061006b9190610269565b610077565b005b5f5481565b60a08151146100bb576040517f08c379a00000000000000000000000000000000000000000000000000000000081526004016100b29061030a565b60405180910390fd5b5f5f6040516063915060208160a0602087016101005afa925082156100df57805191505b50805f81905550505050565b5f819050919050565b6100fd816100eb565b82525050565b5f6020820190506101165f8301846100f4565b92915050565b5f604051905090565b5f5ffd5b5f5ffd5b5f5ffd5b5f5ffd5b5f601f19601f8301169050919050565b7f4e487b71000000000000000000000000000000000000000000000000000000005f52604160045260245ffd5b61017b82610135565b810181811067ffffffffffffffff8211171561019a57610199610145565b5b80604052505050565b5f6101ac61011c565b90506101b88282610172565b919050565b5f67ffffffffffffffff8211156101d7576101d6610145565b5b6101e082610135565b9050602081019050919050565b828183375f83830152505050565b5f61020d610208846101bd565b6101a3565b90508281526020810184848401111561022957610228610131565b5b6102348482856101ed565b509392505050565b5f82601f8301126102505761024f61012d565b5b81356102608482602086016101fb565b91505092915050565b5f6020828403121561027e5761027d610125565b5b5f82013567ffffffffffffffff81111561029b5761029a610129565b5b6102a78482850161023c565b91505092915050565b5f82825260208201905092915050565b7f626164206c656e000000000000000000000000000000000000000000000000005f82015250565b5f6102f46007836102b0565b91506102ff826102c0565b602082019050919050565b5f6020820190508181035f830152610321816102e8565b905091905056fea26469706673582212202171becae4c71d0f63d513d9ca7e57b4e2250680f60586177102919f32ef8fe664736f6c634300081e0033","linkReferences":{}},"methodIdentifiers":{"last()":"47799da8","verify(bytes)":"8e760afe"},"id":0}