{"abi":[{"type":"function","name":"modexp_test_0","inputs":[],"outputs":[{"name":"","type":"bytes32","internalType":"bytes32"}],"stateMutability":"nonpayable"},{"type":"function","name":"modexp_test_1_base_1024","inputs":[],"outputs":[{"name":"","type":"bytes32","internalType":"bytes32"}],"stateMutability":"nonpayable"},{"type":"function","name":"modexp_test_2_exp_1024","inputs":[],"outputs":[{"name":"","type":"bytes32","internalType":"bytes32"}],"stateMutability":"nonpayable"},{"type":"function","name":"modexp_test_3_mod_1024","inputs":[],"outputs":[{"name":"","type":"bytes32","internalType":"bytes32"}],"stateMutability":"nonpayable"},{"type":"function","name":"modexp_test_4_base_1025","inputs":[],"outputs":[{"name":"","type":"bytes32","internalType":"bytes32"}],"stateMutability":"nonpayable"},{"type":"function","name":"modexp_test_5_exp_1025","inputs":[],"outputs":[{"name":"","type":"bytes32","internalType":"bytes32"}],"stateMutability":"nonpayable"},{"type":"function","name":"modexp_test_6_mod_1025","inputs":[],"outputs":[{"name":"","type":"bytes32","internalType":"bytes32"}],"stateMutability":"nonpayable"}],"bytecode":{"object":"0x6080604052348015600e575f5ffd5b5061048f8061001c5f395ff3fe608060405234801561000f575f5ffd5b506004361061007b575f3560e01c806392df564b1161005957806392df564b146100d95780639d9f597f146100f7578063adc9b09514610115578063c4268a98146101335761007b565b806320af3a411461007f57806328f30a591461009d57806350b1c90d146100bb575b5f5ffd5b610087610151565b60405161009491906103d7565b60405180910390f35b6100a5610169565b6040516100b291906103d7565b60405180910390f35b6100c3610181565b6040516100d091906103d7565b60405180910390f35b6100e161019a565b6040516100ee91906103d7565b60405180910390f35b6100ff6101b2565b60405161010c91906103d7565b60405180910390f35b61011d6101ca565b60405161012a91906103d7565b60405180910390f35b61013b610213565b60405161014891906103d7565b60405180910390f35b5f6101646001806104005f5f600161022c565b905090565b5f61017c61040160018060015f5f61022c565b905090565b5f610195600161040060015f60015f61022c565b905090565b5f6101ad6001806104015f5f600161022c565b905090565b5f6101c561040060018060015f5f61022c565b905090565b5f5f6040516001815260016020820152600160408201526008606082015360096061820153600a6062820153600360600160018282845f60055af1825193505050508091505090565b5f610227600161040160015f60015f61022c565b905090565b5f5f60405188815287602082015286604082015250841561026957610264606061025461035a565b61025e9190610426565b89610363565b61027e565b5f88111561027d5760015f60606040510101535b5b83156102b557604051506102b088606061029661035a565b6102a09190610426565b6102aa9190610426565b88610363565b6102d0565b604051606081018981015f8a11156102cc57600181535b5050505b8215610312576040515061030d878960606102e961035a565b6102f39190610426565b6102fd9190610426565b6103079190610426565b87610363565b610331565b604051606081018981018981015f8a111561032c57600181535b505050505b6040518688018901606001878282845f60055af182519350505050809150509695505050505050565b5f604051905090565b7f11111111111111111111111111111111111111111111111111111111111111118183015b806020850110156103a157818452602084019350610388565b5b808410156103b957601184536001840193506103a2565b50505050565b5f819050919050565b6103d1816103bf565b82525050565b5f6020820190506103ea5f8301846103c8565b92915050565b5f819050919050565b7f4e487b71000000000000000000000000000000000000000000000000000000005f52601160045260245ffd5b5f610430826103f0565b915061043b836103f0565b9250828201905080821115610453576104526103f9565b5b9291505056fea26469706673582212202918fea56f0c9f17f403e9f284151eb5a0886658e8f9e1b0f1f46f57aff85afd64736f6c634300081e0033","linkReferences":{}},"methodIdentifiers":{"modexp_test_0()":"adc9b095","modexp_test_1_base_1024()":"9d9f597f","modexp_test_2_exp_1024()":"50b1c90d","modexp_test_3_mod_1024()":"20af3a41","modexp_test_4_base_1025()":"28f30a59","modexp_test_5_exp_1025()":"c4268a98","modexp_test_6_mod_1025()":"92df564b"},"id":0}