{"abi":[{"type":"function","name":"delegatedTest","inputs":[],"outputs":[],"stateMutability":"nonpayable"},{"type":"event","name":"DelegatedEvent","inputs":[{"name":"sender","type":"address","indexed":true,"internalType":"address"}],"anonymous":false}],"bytecode":{"object":"0x60808060405234601357608c908160188239f35b5f80fdfe6004361015600b575f80fd5b5f3560e01c63fc43d65014601d575f80fd5b346052575f366003190112605257337fffa129351fca0574502d4fed2efc701691424295a2ad613f75df4fc905b836465f80a2005b5f80fdfea26469706673582212207a72941d36c674368fef18afe106f1b53ae69a92d38d4dfe4424280f8139f43d64736f6c634300081e0033","linkReferences":{}},"methodIdentifiers":{"delegatedTest()":"fc43d650"},"id":0}