{"abi":[{"type":"constructor","inputs":[],"stateMutability":"nonpayable"},{"type":"fallback","stateMutability":"payable"},{"type":"function","name":"getValue","inputs":[],"outputs":[{"name":"","type":"uint256","internalType":"uint256"}],"stateMutability":"view"},{"type":"function","name":"value","inputs":[],"outputs":[{"name":"","type":"uint256","internalType":"uint256"}],"stateMutability":"view"}],"bytecode":{"object":"0x6080806040523460185761abcd5f5560b49081601d8239f35b5f80fdfe6080806040526004361015602e575b5036602003602757602036126023575f355f55005b5f80fd5b6105395f55005b5f3560e01c908163209652551460675750633fa4f24514604d575f600e565b346023575f36600319011260235760205f54604051908152f35b346023575f3660031901126023576020905f548152f3fea264697066735822122014cbd97e025b287636e61db608f0a64e05eab574df75b3a6b5213df5a440d2fd64736f6c634300081e0033","linkReferences":{}},"methodIdentifiers":{"getValue()":"20965255","value()":"3fa4f245"},"id":0}