{"abi":[{"type":"function","name":"delegatedTest","inputs":[],"outputs":[],"stateMutability":"nonpayable"},{"type":"event","name":"DelegatedEvent","inputs":[{"name":"sender","type":"address","indexed":true,"internalType":"address"}],"anonymous":false}],"bytecode":{"object":"0x60808060405234601557610144908161001a8239f35b5f80fdfe60806040526004361015610011575f80fd5b5f3560e01c63fc43d65014610024575f80fd5b3461010a575f36600319011261010a575f808080670de0b6b3a7640000815af13d15610105573d67ffffffffffffffff81116100f15760405190601f8101601f19908116603f0116820167ffffffffffffffff8111838210176100f15760405281525f60203d92013e5b156100ba57337fffa129351fca0574502d4fed2efc701691424295a2ad613f75df4fc905b836465f80a2005b60405162461bcd60e51b815260206004820152600f60248201526e11551208189d5c9b8819985a5b1959608a1b6044820152606490fd5b634e487b7160e01b5f52604160045260245ffd5b61008e565b5f80fdfea2646970667358221220312059e8596731e293ecde8c2e29536cb2db8cc9ff871a6d440161ea63d2f1d664736f6c634300081e0033","linkReferences":{}},"methodIdentifiers":{"delegatedTest()":"fc43d650"},"id":0}